:020000040800F2
:1000000020070020950500088102000883020008EF
:100010008F0200089B020008A702000800000000F1
:10002000000000000000000000000000B302000813
:10003000B502000800000000AB050008B702000888
:10004000AF050008AF050008AF050008BB020008B7
:10005000AF050008AF050008B9020008AF050008A9
:10006000AF050008AF050008AF050008AF050008A0
:10007000AF050008AF050008AF050008AF05000890
:10008000AF050008AF050008AF050008AF05000880
:10009000AF050008AF050008AF050008AF05000870
:1000A000AF050008AF050008AF050008AF05000860
:1000B000AF050008AF050008AF050008AF05000850
:1000C000AF050008AF050008AF050008AF05000840
:1000D000AF050008B31B000857330008AF05000840
:1000E000AF050008AF050008AF050008AF05000820
:1000F000AF050008AF050008AF050008AF05000810
:10010000AF050008AF050008AF050008AF050008FF
:10011000AF050008AF050008AF050008AF050008EF
:10012000AF050008AF050008AF050008AF050008DF
:1001300000F002F800F094F80AA090E8000C824465
:100140008344AAF10107DA4501D100F089F8AFF242
:10015000090EBAE80F0013F0010F18BFFB1A43F0A5
:1001600001031847E053000000540000103A24BF78
:1001700078C878C1FAD8520724BF30C830C144BF0C
:1001800004680C607047000000230024002500264E
:10019000103A28BF78C1FBD8520728BF30C148BFEA
:1001A0000B6070476E2903F00C85702904F05F80A6
:1001B000662905F05A81652905F05781672905F000
:1001C00054816129AFF3008003681B0A28BF41F006
:1001D0008001692903F0EE81642903F0EB81752920
:1001E00003F0E8816F2903F0ED87782904F02B8074
:1001F000E92903F08987E42903F08687F52903F0CC
:100200008387EF2903F0EA87F82904F02A8003683E
:10021000DB0928BF41F08001632904F0578173296D
:1002200004F05C81E32904F06781F32904F06C8118
:10023000002070471FB59DE8030003F0D1FB04F0D8
:1002400097F804000020002104F0FEFE401C6060CE
:100250000020002104F0E2FEE0601FBD10B510BDDB
:1002600004F03AFA1146FFF7E5FF01F045FD04F00E
:1002700066FA03B4FFF7F2FF03BC04F0D3FA000000
:1002800070470EA11C4801F070FC00BFFEE71BA1E7
:10029000194801F06AFC00BFFEE727A1164801F0EB
:1002A00064FC00BFFEE733A1134801F05EFC00BF11
:1002B000FEE7704770477047704770470D0A2A2A5B
:1002C0002A2A2A2A2A2A2A2A2A2A2A2A2A2A2A2A8E
:1002D0002A486172644661756C745F48616E646C33
:1002E00065722A2A2A2A2A2A2A2A2A2A2A2A2A2AEB
:1002F0002A2A2A2A2A0D0A00003801400D0A2A2A31
:100300002A2A2A2A2A2A2A2A2A2A2A2A2A2A2A2A4D
:100310002A4D656D4D616E6167655F48616E646C05
:1003200065722A2A2A2A2A2A2A2A2A2A2A2A2A2AAA
:100330002A2A2A2A2A0D0A000D0A2A2A2A2A2A2AC1
:100340002A2A2A2A2A2A2A2A2A2A2A2A2A42757361
:100350004661756C745F48616E646C65722A2A2A06
:100360002A2A2A2A2A2A2A2A2A2A2A2A2A2A2A2AED
:100370000D0A00000D0A2A2A2A2A2A2A2A2A2A2AAB
:100380002A2A2A2A2A2A2A2A2A5573616765466157
:10039000756C745F48616E646C65722A2A2A2A2A19
:1003A0002A2A2A2A2A2A2A2A2A2A2A2A2A2A0D0AEA
:1003B000000000000CB50020019000906C4800681F
:1003C00040F480306A49086000BF6948006800F462
:1003D000003000900198401C0190009818B90198D5
:1003E000B0F5A06FF1D16248006800F4003010B1A0
:1003F0000120009001E0002000900098012843D1E6
:100400005C48006840F010005A49086008460068DF
:1004100020F0030008600846006840F00200086011
:10042000534840685249486008464068486008465A
:10043000406840F4806048600846406820F47C10C2
:1004400048600846406840F4E81048600846006884
:1004500040F08070086000BF4548006800F0007000
:100460000028F9D04248406820F003004049486025
:100470000846406840F00200486000BF3C484068C1
:1004800000F00C000828F9D10CBD10B5FFF792FF61
:1004900010BD10B53648006840F0010034490860CE
:1004A00008464068344908403149486008460068B9
:1004B000324908402E4908600846006820F4802030
:1004C00008600846406820F4FE0048604FF41F00B2
:1004D0008860FFF7DAFF4FF000602949086010BD1F
:1004E00010B5002100200022214B5B6803F00C01B5
:1004F00021B1042906D0082928D107E0214B224C3C
:10050000236027E01F4B204C236023E0184B5B68DF
:1005100003F47010164B5B6803F48032022303EB84
:10052000904022B9194B4343174C23600DE0104B08
:100530005B6803F4003323B1144B4343124C236034
:1005400003E0104B4343104C236003E00D4B0E4C73
:10055000236000BF00BF064B5B68C3F303130C4C62
:10056000E15C094B1B68CB40074C236010BD0000C9
:1005700000100240002002400000FFF8FFFFF6FEDE
:1005800008ED00E000127A000000002000093D00A4
:10059000040000200948804709480047FEE7FEE7BD
:1005A000FEE7FEE7FEE7FEE7FEE7FEE7FEE7FEE723
:1005B00004480549054A064B7047000093040008AB
:1005C0003101000820010020200700202003002026
:1005D0002003002031490143314A1160704770B552
:1005E000002100230F22C47804B32D4C246804F4A6
:1005F000E064C4F5E064210AC1F10403CA40447810
:1006000004FA03F18478144021430901254C06784B
:10061000A155047804F01F050124AC4005786D1144
:10062000AD0005F1E025C5F8004109E0047804F0CB
:100630001F050124AC401C4D0678761145F8264074
:1006400070BD1A4A0A400243154B1B1F1A607047BF
:1006500039B1134A121D12680243114B1B1D1A6057
:1006600006E00F4A121D126882430D4B1B1D1A60D3
:100670007047042808D14FF0E021096941F00401D6
:100680004FF0E022116107E04FF0E021096921F00D
:1006900004014FF0E0221161704700000000FA05EC
:1006A0000CED00E000E400E080E100E080FFFF1FCF
:1006B00010B50446CC48844208D10121042000F042
:1006C0002DFB0021042000F029FB46E0C7488442AE
:1006D00008D10121082000F021FB0021082000F0B2
:1006E0001DFB3AE0C248844208D10121102000F0ED
:1006F00015FB0021102000F011FB2EE0BD488442C4
:1007000008D10121202000F009FB0021202000F069
:1007100005FB22E0B848844208D10121402000F0C6
:10072000FDFA0021402000F0F9FA16E0B3488442B7
:1007300008D10121802000F0F1FA0021802000F092
:10074000EDFA0AE0AE48844207D10121801500F09D
:10075000E5FA0021A01500F0E1FA10BD10B5012165
:10076000084600F0DBFA0021012000F0D7FA10BDA6
:100770002DE9F04102460025002600200023002438
:10078000002791F803C00CF00F0591F803C00CF09E
:10079000100CBCF1000F03D091F802C04CEA050523
:1007A00091F800C0BCF1000F31D0146800202BE09C
:1007B0004FF0010C0CFA00F3B1F800C00CEA03068C
:1007C0009E4220D183004FF00F0C0CFA03F7BC437C
:1007D00005FA03FC4CEA040491F803C0BCF1280FAD
:1007E00006D14FF0010C0CFA00FCC2F814C00AE06C
:1007F00091F803C0BCF1480F05D14FF0010C0CFA81
:1008000000FCC2F810C0401C0828D1D31460B1F815
:1008100000C0BCF1FF0F34DD546800202EE000F171
:10082000080C4FF0010808FA0CF3B1F800C00CEA0C
:1008300003069E4221D183004FF00F0C0CFA03F700
:10084000BC4305FA03FC4CEA040491F803C0BCF174
:10085000280F05D100F1080C08FA0CF8C2F8148032
:1008600091F803C0BCF1480F07D100F1080C4FF01C
:10087000010808FA0CF8C2F81080401C0828CED3F2
:100880005460BDE8F0814FF6FF7101800221817054
:100890000421C17070470246002093680B400BB1E1
:1008A000012000E0002070470146886880B2704750
:1008B00002460020D3680B400BB1012000E000206D
:1008C00070470146C86880B2704701617047416156
:1008D00070470AB1016100E041617047C160704733
:1008E0004FF480320A438261816182618269826948
:1008F000704702460020434B18684FF6807318403B
:1009000040EA021008433F4B186070473E49C861F7
:100910007047F0B50A46002300240021002500F0AE
:100920000046B6F1004F02D1364EF16901E0354E76
:100930007168C0F3034583B200F44016B6F5401F5A
:1009400008D121F070612F4E766826F070662D4F29
:100950007E6012E000F48016B6F5801F06D10326F3
:1009600006FA05F4A14341F0706106E0460D360138
:1009700003FA06F6B14341F0706122B1460D36012B
:1009800003FA06F6314300F00046B6F1004F02D1FB
:100990001C4EF16101E01B4E7160F0BD30B50022CC
:1009A0008B071C0F0F2303FA04F2164B08338C102D
:1009B00053F824309343134C08348D1044F82530F9
:1009C00023468C1053F824308C07240F00FA04F4CB
:1009D00023430C4C08348D1044F8253030BD0A49AF
:1009E000DC3108607047000000080140000C014045
:1009F000001001400014014000180140001C01409B
:100A0000002001400000014000002042DF48006853
:100A100040F00100DD49086008464068DC490840B4
:100A2000DA49486008460068DA490840D749086052
:100A30000846006820F4802008600846406820F4DA
:100A4000FE0048604FF41F0088607047CF49096876
:100A500021F48031CD4A11601146096821F48021CA
:100A60001160B0F5803F03D0B0F5802F0ED106E0C5
:100A7000C649096841F48031C44A116007E0C3499E
:100A8000096841F4A021C14A116000E000BF00BF25
:100A9000704710B501460022002300204A11012AA8
:100AA00002D1BA4C236806E0022A02D1B74C236A6D
:100AB00001E0B64C636A01F01F02012494401C401F
:100AC0000CB1012000E0002010BD38B500200090DE
:100AD0000024002500BF3120FFF7DBFF054600980A
:100AE000401C00900098B0F5A06F01D0002DF2D00E
:100AF0003120FFF7CEFF08B1012400E0002420469A
:100B000038BD01460020A14A106820F0F80040EAF4
:100B1000C10010607047A04908607047024600207D
:100B20009A4B586820F47C1042EA01031843974B13
:100B30005860704798490866704701460020934AFC
:100B4000506820F003000843506070478F484068A9
:100B500000F00C007047014600208C4A506820F0DD
:100B6000F00008435060704701460020874A5068F3
:100B700020F4E06008435060704701460020834A3B
:100B8000506820F4605040EAC1005060704729B1BD
:100B90007E4A527A02437D4B5A7204E07B4A527A73
:100BA00082437A4B5A7270477B49D831086070474C
:100BB00001460020754A506820F4404008435060C8
:100BC00070470021714A20321170704A82F820105B
:100BD000012802D004280AD104E001216B4A203206
:100BE000117005E00521694A2032117000E000BF54
:100BF00000BF70476949086070476449096A01434A
:100C0000624A11627047654944390860704730B5DF
:100C100000210022002400235C4D6D6805F00C01CA
:100C200021B1042905D0082923D105E05C4D0560D8
:100C300022E05B4D05601FE0544D6D6805F47012B5
:100C4000524D6D6805F48034022505EB92421CB9C3
:100C5000544D554305600BE04C4D6D6805F400356F
:100C60001DB1504D5543056002E04D4D55430560A3
:100C700002E04B4D056000BF00BF444D6D6805F0BC
:100C8000F0010909484D6B5C0568DD4045603F4D4A
:100C90006D6805F4E061090A434D6B5C4568DD4011
:100CA00085603A4D6D6805F46051C90A3E4D6B5C34
:100CB0004568DD40C560354D6D6805F44041890BE0
:100CC0003A4D6B5CC568B5FBF3F5056130BD29B1E4
:100CD0002E4A526902432D4B5A6104E02B4A526955
:100CE00082432A4B5A61704729B1284A92690243CC
:100CF000264B9A6104E0254A92698243234B9A610C
:100D0000704729B1214AD2690243204BDA6104E0DD
:100D10001E4AD26982431D4BDA61704729B11B4AD2
:100D2000D2680243194BDA6004E0184AD268824361
:100D3000164BDA60704729B1144A12690243134B0B
:100D40001A6104E0114A12698243104B1A6170471C
:100D500012494039086070470F49C86470470B4911
:100D6000C87170470948406A40F08070074948627E
:100D7000704701460020054A92680A400AB10120E6
:100D800000E000207047014988727047001002405F
:100D90000000FFF8FFFFF6FE0000424280044242DE
:100DA00000127A0000093D001400002024000020F9
:100DB00010B50446FB48844209D101218803FFF79E
:100DC000ADFF00214FF48040FFF7A8FF32E0F64866
:100DD000844209D101214804FFF7ADFF00214FF4FF
:100DE0000030FFF7A8FF25E0F048844209D1012137
:100DF0008804FFF7A0FF00214FF48020FFF79BFF3E
:100E000018E0EB48844209D10121C804FFF793FFA1
:100E100000214FF40020FFF78EFF0BE0E5488442ED
:100E200008D101210805FFF786FF00214FF480104B
:100E3000FFF781FF10BD2DE9F04786B005460E464D
:100E40000024A24600BFA1460027B08900B100BF20
:100E50002F462C8A4CF6FF700440F08804432C8205
:100E6000AC894EF6F3100440B0883189084371898B
:100E700008430443AC81AC8A4FF6FF400440B0897C
:100E80000443AC8201A8FFF7C2FEC648874202D1E4
:100E9000DDF810A001E0DDF80CA0A88900F4004006
:100EA00040B10AEBCA0000EB0A1031684900B0FB00
:100EB000F1F807E00AEBCA0000EB0A10316889007C
:100EC000B0FBF1F86420B8FBF0F0040120096421C4
:100ED00001FB1089A88900F4004040B1322000EBEA
:100EE000C900B0FBF1F000F00700044308E0322035
:100EF00000EB09106421B0FBF1F000F00F00044397
:100F00002C8106B0BDE8F0874FF416510160002136
:100F10008180C18001810C21418100218181704744
:100F200010B502460020108A4FF2FF0318400B88CC
:100F30004C8823438C882343CC8823431843108256
:100F400010BD0021018041808180C180704721B1A6
:100F5000828942F40052828104E082894DF6FF7357
:100F60001A4082817047F0B5034600240026002510
:100F7000002040F66A17B94200D100BF1846C1F3FD
:100F8000421401F01F06012707FA06F5012C01D1D2
:100F90000C3004E0022C01D1103000E014301AB102
:100FA00007682F43076002E00768AF430760F0BDA2
:100FB0001AB1838A0B43838202E0838A8B43838244
:100FC0007047028A4FF6F0731A400282028A0A437F
:100FD0000282704782894FF2FF731A4082818289B0
:100FE0000A438281704721B1828942F002028281E4
:100FF00004E082894FF6FD731A4082817047028AAD
:101000004FF6DF731A400282028A0A430282704757
:1010100021B1028A42F48042028204E0028A4BF645
:10102000FF731A4002827047C1F308028280704742
:1010300001468888C0F308007047818941F00101AA
:1010400081817047028BD2B20283028B42EA012275
:1010500002837047028B02F47F420283028B0A43B1
:101060000283704721B1828A42F02002828204E02A
:10107000828A4FF6DF731A408282704721B1828ADA
:1010800042F01002828204E0828A4FF6EF731A4027
:101090008282704721B1828A42F00802828204E093
:1010A000828A4FF6F7731A408282704721B1828993
:1010B00042F40042828103E08289C2F30E028281FF
:1010C000704721B1828A42F40062828204E0828AFF
:1010D0004FF2FF731A4082827047828A4FF6FB7389
:1010E0001A408282828A0A438282704721B1828AB0
:1010F00042F00202828204E0828A4FF6FD731A40B7
:101100008282704702460020B1F5007F00D100BF07
:1011100013880B400BB1012000E00020704701F460
:101120000072B2F5007F00D100BFCA430280704751
:1011300070B50246002400230025002040F66A1600
:10114000B14200D100BFC1F3421501F01F030126D7
:1011500006FA03F3012D02D19689334006E0022DF1
:1011600002D1168A334001E0968A33400C120126E0
:1011700006FA04F41688344013B10CB1012000E0E3
:10118000002070BD10B50022002340F66A14A14271
:1011900000D100BF0A1201249440A3B2DC430480B2
:1011A00010BD0000003801400044004000480040ED
:1011B000004C00400050004010B50446FA488442FC
:1011C00008D101214015FFF7A9FD00216015FFF7A7
:1011D000A5FD17E0F548844208D101210015FFF76D
:1011E0009DFD00212015FFF799FD0BE0F04884429A
:1011F00008D10121C803FFF791FD00214FF4004001
:10120000FFF78CFD10BD30B502460020002350686A
:10121000E84C20400D790C6844EA052420435060D6
:101220009068E54C2040D1E902542C434D7944EAC2
:10123000450420439060D06A20F470000C7C641E4A
:10124000E4B2234340EA0350D06230BD0021016084
:10125000017141718160C16001210174704721B148
:10126000826842F00102826003E0826822F001029B
:101270008260704721B1826842F48072826003E02C
:10128000826822F480728260704710B50023CBB26E
:101290001AB144681C43446002E044689C434460C3
:1012A00010BD816841F0080181607047014600204F
:1012B0008A6802F008020AB1012000E000207047AD
:1012C000816841F0040181607047014600208A680E
:1012D00002F004020AB1012000E00020704721B1B1
:1012E000826842F4A002826003E0826822F4A002D5
:1012F00082607047014600208A6802F480020AB1C9
:10130000012000E00020704710B50A4600210023AC
:10131000416821F46041531E41EA4331416010BDF0
:1013200021B1426842F40062426003E0426822F464
:10133000006242607047F0B504460D46002000216F
:10134000092D11DDE068A5F10A0606EB4607072620
:1013500006FA07F18843A5F10A0606EB460603FAEA
:1013600006F10843E0600CE0206905EB450707261D
:1013700006FA07F1884305EB450603FA06F1084330
:101380002061072A0FDA606B561E06EB86071F26C0
:1013900006FA07F18843561E06EB860605FA06F1A3
:1013A0000843606322E00D2A0FDA206BD61F06EB9C
:1013B00086071F2606FA07F18843D61F06EB860626
:1013C00005FA06F10843206310E0E06AA2F10D0679
:1013D00006EB86071F2606FA07F18843A2F10D06E1
:1013E00006EB860605FA06F10843E062F0BD21B17E
:1013F000826842F48012826003E0826822F48012E4
:10140000826070470146C86C80B2704766484C30B5
:101410000068704721B1426842F48062426003E094
:10142000426822F480624260704721B1426842F40F
:101430008052426003E0426822F48052426070476A
:101440000A460021816821F4E04111438160704720
:1014500021B1826842F40042826003E0826822F493
:1014600000428260704721B1826842F402128260B9
:1014700003E0826822F40212826070470146002075
:101480008A6802F400120AB1012000E000207047CF
:10149000F0B504461546002000220026092911DD7A
:1014A000E068A1F10A0707EB470C072707FA0CF2DF
:1014B0009043A1F10A0707EB470703FA07F210432D
:1014C000E0600CE0206901EB410C072707FA0CF201
:1014D000904301EB410703FA07F210432061A06B30
:1014E000C0F30156EF1C06F1010CA7EB0C0707EB4C
:1014F000870C1F2707FA0CF29043EF1C06F1010C32
:10150000A7EB0C0707EB870701FA07F21043A0636C
:10151000F0BD10B50A4600210023816B21F4401173
:10152000531E41EA0351816310BD08B500230093A7
:101530000090009B0B440093009B1A6008BD08B507
:10154000024600200090009201F12800009B184400
:1015500000900098006880B208BD0A4600214168EA
:10156000164B1940114341607047416282627047D7
:101570000A460021416821F01F0111434160704774
:1015800040B109490831096841F40001064A0832AE
:10159000116007E004490831096821F40001024A9A
:1015A000083211607047000000240140002801400B
:1015B000003C0140FFFEF0FFFDF7F1FFFFFD3FFFA4
:1015C0000246002013680B400BB1012000E0002010
:1015D0007047CA430260704770B50246002000237E
:1015E00000240B125568CEB205EA060415681D40AA
:1015F00015B10CB1012000E0002070BD00220A12DC
:10160000D34303607047000010B50446224608210A
:101610001148FFF75EF91148047010BD08B50121AB
:101620000820FFF761FB01210846FFF75DFB012160
:101630000B48FFF76EF910208DF803000820ADF875
:10164000000003208DF8020069460348FFF790F878
:101650000020FFF7D9FF08BD000C01402800002042
:10166000000230004FF0E020006920F004004FF04D
:10167000E02108610920364908700846007800EB2F
:101680004001C1EBC0104FF6FF7101EAC0003149C3
:1016900008807047002120F07F402D4A1278424395
:1016A0004FF0E0235A6100229A6101221A6100BFC3
:1016B0004FF0E022116901F001021AB101F4803209
:1016C000002AF5D000224FF0E0231A619A6170479A
:1016D000002100B9704720F07F401E4A1288424323
:1016E0004FF0E0235A6100229A6101221A6100BF83
:1016F0004FF0E022116901F001021AB101F48032C9
:10170000002AF5D000224FF0E0231A619A6100BF51
:10171000E0E770B50446002600254FF4FA7094FB0C
:10172000F0F0C6B24FF4FA7094FBF0F100FB1140F8
:1017300085B205E04FF4FA70FFF7CAFF701EC6B21B
:10174000002EF7D115B12846FFF7C2FF70BD00008B
:101750002A0000202C00002008B501213020FFF7CE
:10176000C3FA48208DF803004FF46050ADF8000034
:1017700003208DF8020069465B48FEF7F9FF04205C
:10178000ADF8000069465948FEF7F2FF08BD70B594
:1017900004460D465448844207D1A9B2FFF77BF8AE
:1017A00008B9012070BD0020FCE75048844207D1F1
:1017B000A9B2FFF770F808B90120F3E70020F1E7BC
:1017C0000020EFE710B54FF400514748FFF7DFFF67
:1017D00080B14748007840F001004549087001E0B9
:1017E000FF2010BD4FF400513F48FFF7D0FF002805
:1017F000F6D10CE03E48007800F0010038B13C48DA
:10180000007800F0FE003A4908700020E9E74FF444
:1018100000613548FFF7BBFF80B13548007840F0E4
:1018200002003349087001E0FF20DAE74FF400615D
:101830002D48FFF7ACFF0028F6D10CE02C480078CB
:1018400000F0020038B12A48007800F0FD00284975
:1018500008700320C5E74FF480512348FFF797FF36
:1018600080B12348007840F004002149087001E06D
:10187000FF20B6E74FF480511B48FFF788FF002890
:10188000F6D10CE01A48007800F0040038B118488E
:10189000007800F0FB00164908700620A1E704213B
:1018A0001248FFF774FF78B11148007840F0080043
:1018B0000F49087001E0FF2093E704210B48FFF770
:1018C00066FF0028F7D10CE00948007800F0080016
:1018D00038B10748007800F0F70005490870092082
:1018E0007FE7FF207DE70000001001400014014069
:1018F0002E00002010B50446012C01D0012000E08C
:10190000002002464FF480613648FEF7E2FF0CB13A
:10191000012000E000203449C87010BD10B5044615
:10192000012C01D0012000E0002002464FF480513C
:101930002E48FEF7CEFF0CB1012000E000202A491E
:10194000887010BD10B50446012C01D0012000E0C4
:10195000002002464FF480712248FEF7BAFF0CB116
:10196000012000E000202049487010BD10B5044659
:10197000012C01D0012000E00020024680211948FE
:10198000FEF7A7FF0CB1012000E000201649087007
:1019900010BD08B501211420FFF7A6F910208DF81D
:1019A00003004FF4B060ADF8000003208DF8020092
:1019B00069460C48FEF7DCFE4FF48050ADF800009D
:1019C00069460A48FEF7D4FE0020FFF7CFFF00204B
:1019D000FFF7B8FF0020FFF7A1FF0020FFF78AFF05
:1019E00008BD0000001001402F0000200008014049
:1019F00010B586B0044601210420FFF775F90121D6
:101A00008803FFF771F918208DF817004FF4007064
:101A1000ADF8140003208DF8160005A96B48FEF7F9
:101A2000A7FE04208DF817000002ADF81400032073
:101A30008DF8160005A96548FEF79AFE019400206E
:101A4000ADF810000C20ADF80E000020ADF80C0031
:101A5000ADF80A00ADF8080001A95D48FFF7EBF901
:101A600001215B48FFF773FA012240F225515848E3
:101A7000FFF779FA25208DF8000001208DF803008A
:101A800000208DF8010002208DF802006846FEF764
:101A9000A6FD06B010BD10B586B004460121042095
:101AA000FFF722F901214804FFF72BF918208DF8E0
:101AB00017000420ADF8140003208DF8160005A9C6
:101AC0004248FEF755FE04208DF817000820ADF8B7
:101AD000140003208DF8160005A93C48FEF748FEC7
:101AE00001940020ADF810000C20ADF80E0000208D
:101AF000ADF80C00ADF80A00ADF8080001A93548B2
:101B0000FFF799F901213348FFF721FA012240F24A
:101B100025513048FFF727FA26208DF800000120D4
:101B20008DF8030000208DF801008DF80200684652
:101B3000FEF755FD06B010BD2DE9F04107460C46F5
:101B4000154600260DE014F8011B3846FFF76CFA25
:101B500000BF40213846FFF7D5FA0028F9D0701CA5
:101B600086B2AE42EFDBBDE8F0810FB430B5CBB04A
:101B7000054601AC50A800904FF4947101A8009B59
:101B80004F9A01F0E7FC002000900BE014F8011BD5
:101B90002846FFF749FA00BF40212846FFF7B2FA6E
:101BA0000028F9D020780028F0D14BB030BC5DF887
:101BB00014FB10B540F225510548FFF7B9FA18B1EA
:101BC00020210348FFF7ABFA10BD000000080140D8
:101BD000003801400044004000B587B001214FF4B7
:101BE0000170FFF781F84FF40040FEF7E1FF02209B
:101BF000ADF8040000208DF8070001A92E48FEF77B
:101C0000B7FD2E48FFF7D8FA002002908DF80C009F
:101C10008DF80D004FF46020049000200590012005
:101C20008DF8180002A92548FFF7EDFA0121234895
:101C3000FFF715FB2148FFF734FB00BF1F48FFF7F4
:101C400035FB0028FAD11D48FFF73AFB00BF1B48BF
:101C5000FFF73BFB0028FAD107B000BD10B50446E2
:101C60000723012221461548FFF765FB0121134890
:101C7000FFF735FB00BF02211048FFF7A1FC002849
:101C8000F9D00E48FFF7BEFB10BD2DE9F041074625
:101C90000C460025002608E03846FFF7DFFF054424
:101CA0000520FFF715FD701CC6B2A642F4DBB5FB9C
:101CB000F4F080B2BDE8F08100080140002401404A
:101CC00010B54FF4A060FEF785FCFFF7CBFC4FF496
:101CD000E130FFF78DFE4FF4E130FFF7DCFEFFF758
:101CE00058FEFFF79BFCFFF737FDFFF775FF51A18B
:101CF0005548FFF73AFF10BD1CB500200190824601
:101D000000908346FFF7DCFF01F0AFFA03E04FF4E9
:101D1000FA70FFF7DDFC00F0B5F80028F7D1FA20E3
:101D2000FFF7D6FC85E0FFF74DFD30B1032825D045
:101D300006280DD009282CD115E04448007818B9A0
:101D40000120FFF713FE02E00020FFF70FFE21E065
:101D50003E48407818B90120FFF7F4FD02E000206A
:101D6000FFF7F0FD16E03948807818B90120FFF739
:101D7000D5FD02E00020FFF7D1FD0BE03348C0782D
:101D800018B90120FFF7B6FD02E00020FFF7B2FD11
:101D900000E000BF00BF0198401C80B201903228D3
:101DA00014DB2BA12848FFF7E0FE00F039F90020F2
:101DB000019001F0DDF92B48006803F08BFA04462E
:101DC00022460B4628A12048FFF7CFFE002001F055
:101DD0002AFA8246BAF1000F02D0504600F060F9AC
:101DE0000A210120FFF751FF044603F0ABFA0090EF
:101DF000009803F06FFA06464FF066321E4B03F070
:101E00006BF9044600221D4B03F066F9804603F08F
:101E100031F983461A49584603F0A8FA03D2002044
:101E20001049086002E00F48C0F800B00A20FFF730
:101E30004FFC78E720486172647761726520696EB3
:101E40006974204F4B0D0A00003801402F0000201C
:101E50004F6E654E65745F53656E64446174610DC9
:101E60000A0000003400002075765F76616C7565AD
:101E70003A25660D0A00000066664A3F0000594098
:101E80000000404030B58BB00020079008900990CA
:101E90000A900125CFA0D2A3D9A2DBA10090E648E9
:101EA000FFF763FE07A8002102910391CDE904101A
:101EB00000912B02C7A20191C9A1D1A000F0ABFBF8
:101EC000002842D1089A91B2079801F095F9FA20BA
:101ED00001F0A9F90446002C33D0204600F066FB3F
:101EE00002282ED1204600F0FBFC062823D2DFE892
:101EF00000F003090E13181DD0A1CF48FFF735FEDF
:101F000000251DE0D2A1CC48FFF72FFE18E0D7A195
:101F1000C948FFF72AFE13E0DDA1C748FFF725FEF9
:101F20000EE0E3A1C448FFF720FE09E0E9A1C248A2
:101F3000FFF71BFE04E0F2A1BF48FFF716FE00BF4B
:101F400000BF07A800F0EAFA03E0F4A1BA48FFF7DF
:101F50000CFE28460BB030BD7FB504460020009033
:101F6000019002900390F6A000882080002000904D
:101F7000019002900390F3480278F3A1684601F0C3
:101F800003FB6946204601F06DFC002000900190A3
:101F900002900390EB484278EFA1684601F0F4FA12
:101FA0006946204601F05EFC0020009001900290FE
:101FB0000390E4488278ECA1684601F0E5FA6946AE
:101FC000204601F04FFC0020009001900290039009
:101FD000DC48C278E9A1684601F0D6FA6946204695
:101FE00001F040FC00200090019002900390E7482F
:101FF000006803F06FF905462A460B46E4A16846DF
:1020000001F0C2FA6946204601F02CFCE5A1204609
:1020100001F028FC204601F006FCC0B204B070BDFF
:1020200030B5A5B000202190229023902490002468
:102030000025DDA18048FFF798FD802101A801F06F
:1020400084FC01A8FFF788FF0446002C26D021A8B5
:1020500003230022214600905EA000F0EFFCC8B9E7
:1020600008E001A8415D229A501C229021988154D9
:10207000681C05B2A542F4DB229A91B2219801F0C6
:10208000BBF8D1A16C48229AFFF76FFD21A800F0A0
:1020900045FA03E0D0A16848FFF767FD25B030BDE1
:1020A0002DE9F0418CB080460020089009900A90FC
:1020B0000B9007900690059000260027002500242D
:1020C000404600F073FA0646042E25D00F2E2CD180
:1020D00005AB07AA06A9404600F0DCFC0746D7B9C5
:1020E000BDF814000090C4A15348DDE90623FFF7B2
:1020F0003CFD08AADDE9060100F012FD58B9C7A1B0
:102100004D48FFF732FD099A91B2089801F074F832
:1021100008A800F003FA0BE0404600F065FF18B98C
:10212000C4A14548FFF721FD02E04FF0FF3700BF93
:1021300000BF01F01DF8781C10B90CB0BDE8F081AB
:102140003A21079801F041FB0546002D1ED0781C6E
:1021500000281BD06D1C05E015F8012B2046641CDF
:1021600002A90A542878302802DB28783928F3DDC0
:1021700002A801F01DFB0446B8A1079801F041FB3D
:1021800050B1012C03D10120FFF7F0FB8AE1F4B933
:102190000020FFF7EBFB85E1B2A1079801F031FBCE
:1021A00050B1012C03D10120FFF7CCFB7AE174B9C7
:1021B0000020FFF7C7FB75E1ADA1079801F021FBF7
:1021C00030B1012C05D10120FFF7A8FB6AE169E1DC
:1021D00059E153E1353132343035343033000000C9
:1021E000394F68774276416C746B436F5457316E48
:1021F000556F71445A45794D7079733D0000000068
:1022000032303135393800004F6E654E65745F44A9
:1022100065764C696E6B0D0A50524F49443A202541
:10222000732C09415549463A2025732C09444556DB
:1022300049443A25730D0A0000380140546970730F
:102240003A09C1ACBDD3B3C9B9A60D0A000000005C
:102250005741524E3A09C1ACBDD3CAA7B0DCA3BAAC
:10226000D0ADD2E9B4EDCEF30D0A00005741524E85
:102270003A09C1ACBDD3CAA7B0DCA3BAB7C7B7A8E7
:10228000B5C4636C69656E7469640D0A0000000072
:102290005741524E3A09C1ACBDD3CAA7B0DCA3BA6C
:1022A000B7FECEF1C6F7CAA7B0DC0D0A00000000E9
:1022B0005741524E3A09C1ACBDD3CAA7B0DCA3BA4C
:1022C000D3C3BBA7C3FBBBF2C3DCC2EBB4EDCEF3FD
:1022D0000D0A00005741524E3A09C1ACBDD3CAA7FE
:1022E000B0DCA3BAB7C7B7A8C1B4BDD328B1C8C8BA
:1022F000E7746F6B656EB7C7B7A8290D0A000000B9
:102300004552523A09C1ACBDD3CAA7B0DCA3BACE7C
:10231000B4D6AAB4EDCEF30D0A0000005741524ED8
:102320003A094D5154545F5061636B6574436F6E4D
:102330006E656374204661696C65640D0A00000077
:102340007B0000002F000020225265645F4C656412
:10235000223A25642C00000022477265656E5F4CAE
:102360006564223A25642C002259656C6C6F775F96
:102370004C6564223A25642C0000000022426C75F2
:10238000655F4C6564223A25642C0000340000200F
:102390002275765F76616C7565223A25302E33663C
:1023A000000000007D000000546970733A094F6E10
:1023B000654E65745F53656E64446174612D4D5163
:1023C00054540D0A0000000053656E6420256420FB
:1023D00042797465730D0A005741524E3A094544DB
:1023E000505F4E6577427566666572204661696C1E
:1023F00065640D0A00000000636D6469643A20257D
:10240000732C207265713A2025732C207265715FE0
:102410006C656E3A2025640D0A00000054697073E3
:102420003A0953656E6420436D64526573700D0AFA
:1024300000000000546970733A094D515454205003
:1024400075626C6973682053656E64204F4B2C7302
:1024500075636365642121210D0A00007265646C57
:1024600065640000677265656E6C6564000000005D
:1024700079656C6C6F776C656400000094B900201E
:10248000FFF74CFA0EE00DA1079801F0BAF948B138
:10249000012C03D10120FFF72DFA03E014B900202D
:1024A000FFF728FA0F2E01D0032E05D1069801F070
:1024B0002AF8079801F027F800BF3EE6626C7565C0
:1024C0006C65640070B504460E460025206898B916
:1024D00001202073304600F0E7FF20602068E0B163
:1024E00000206060A66003E00020216848556D1C54
:1024F000A068A842F8D810E00220207303E0002072
:10250000216848556D1CA068A842F8D8002060607A
:10251000A068B04201D20020206070BD10B5044612
:10252000207B012802D1206800F0EDFF0020206010
:102530006060A060207310BD0246002301230DE0FF
:1025400002F07F000870D2092AB1087840F08000BC
:102550000870491C01E0184670475B1C042BEFDD36
:102560004FF0FF30F8E7F0B504460D46264601234C
:1025700000201060002114E0775C07F07F071068EE
:1025800007FB03001060705C00F0800008B9481C75
:10259000F0BDDB01B3F5001F02D36FF00100F7E7D8
:1025A000491CA942E8DB4FF0FF30F1E7F8B50446DB
:1025B000FF2720780511012D01DB0E2D01DD3846A6
:1025C000F8BD032D24D1002000906A460421601C30
:1025D000FFF7C9FF2044461C0098022803D3207847
:1025E00000F0010008B1FF20EAE77078317840EA96
:1025F0000120801C0099884201D9FF20E0E7FEA15C
:10260000B01C01F0FEF808B10F2700E0032700E03E
:102610002F463846D4E72DE9FF4F83B082468B46DC
:102620009146159C0025002002900F2701904846F6
:1026300001F0F9F80FFA80F8B9F1000F03D1012089
:1026400007B0BDE8F08F08F10200384487B2109857
:1026500008B145F00205129878B145F004051298CA
:1026600001F0E1F8C0B20290139801F0DCF80146E5
:102670000298001D0844384487B2119820B10128FF
:1026800004D0022808D104E000BF07E045F00C05A3
:1026900004E045F0140501E00220D1E700BF1498E2
:1026A00008B145F02405BAF1000F02D0BBF1000FCC
:1026B00001D10320C4E745F0C005504601F0B3F84E
:1026C0000646584601F0AFF83044001D384487B242
:1026D00039462046FFF7F6FE206808B90420AFE728
:1026E0003946206801F00FF910216268501C6060C3
:1026F00020688154D4E90023D118781FFFF71CFF0C
:1027000000B201900198002804DA2046FFF706FF86
:10271000052095E7616801980844606000216268BF
:10272000501C60602068815404216268501C606005
:10273000206881544D216268501C6060206881547B
:1027400051216268501C6060206881545421626885
:10275000501C6060206881546268501C6060206872
:10276000815404216268501C606020688154616853
:10277000481C6060206845540698010A6268501C35
:102780006060206881540698C1B26268501C606025
:1027900020688154C8F307216268501C606020687B
:1027A00081546268501C6060206800F80280D4E99F
:1027B000001288184246494601F011F8606840440A
:1027C000606005F00400B8B30026139808B98CA027
:1027D0001390129801F027F886B2310A6268501CF3
:1027E0006060206881546268501C60602068865474
:1027F000D4E9001288183246129900F0F0FF6068A0
:1028000030446060139801F00EF886B2310A6268B5
:10281000501C6060206881546268501C60602068B1
:102820008654D4E9001288183246139900F0D7FF75
:1028300060683044606000BF05F08000C8B1504659
:1028400000F0F1FF86B2310A6268501C60602068B7
:1028500081546268501C606020688654D4E900127C
:1028600088183246514600F0BAFF60683044606014
:1028700000BF05F04000C8B1584600F0D4FF86B252
:10288000310A6268501C6060206881546268501C84
:10289000606020688654D4E9001288183246594690
:1028A00000F09DFF60683044606000BF0020C7E614
:1028B00010B5044602212046FFF704FE206808B93F
:1028C000012010BDE0216268501C606020688154C6
:1028D00000216268501C6060206881540020F0E78D
:1028E00001464878022801D001207047887810B14D
:1028F0008878012801D1C878F7E7FF20F5E72DE9AE
:10290000F84F8046894693469A460D9C002700253D
:10291000002000900026B8F1000F02D10120BDE890
:10292000F88F00250AE019F80500232803D019F8CC
:1029300005002B2801D10220F1E76D1C19F80500D4
:102940000028F0D146F030060B9808B146F0010699
:1029500005EB0A00871C0A9820B1012804D0022840
:102960000AD105E000BF09E046F00206BF1C05E001
:1029700046F00406BF1C01E00320D0E700BFF91CAD
:102980002046FFF79FFD206808B90420C7E7F91C1F
:10299000206800F0B8FF6168481C606020684654F9
:1029A000D4E9000281183846FFF7C6FD0090009870
:1029B000002804DA2046FFF7B1FD0520AFE7616883
:1029C000009808446060C5F307216268501C60608D
:1029D000206881546268501C606020688554D4E986
:1029E000001288182A46494600F0F9FE606828441B
:1029F00060600A9898B105E0246372657100000078
:102A0000000000004FEA18216268501C60602068D6
:102A100081546268501C6060206800F80280BBF13D
:102A2000000F09D0D4E9001288185246594600F028
:102A3000D6FE606850446060002070E72DE9FF41D9
:102A400007460D4690461E460A9C01200021CDE90E
:102A50000001EB1C0A46F9A1CDE902040A20FFF7A8
:102A60004EFF88B96168481C606020684654C5F311
:102A700007216268501C6060206881546268501CA5
:102A800060602068855403E0012004B0BDE8F08157
:102A90000020FAE72DE9F84380460C4615461E460D
:102AA0002F2108F1060000F090FE0746002000905C
:102AB00017B90120BDE8F8837F1C6A46042108F19C
:102AC0000100FFF750FD252000F0EEFC206020689B
:102AD00008B90220EEE72521206800F014FF242227
:102AE0003946206800F0CAFE243700982C38308020
:102AF0003188481C00F0D8FC2860286820B920687C
:102B000000F001FD0320D5E73288511C286800F051
:102B1000FAFE32883946286800F0B0FE0020C9E786
:102B20002DE9FF5F07460D469046384600F07BFED4
:102B300086B2284600F077FE1FFA80FA4FF00009AF
:102B4000B01D00F0B1FC04461CB9012004B0BDE882
:102B5000F09FB11D204600F0D6FEBAA001682160AA
:102B60008088A08032463946204600F038FE28464C
:102B700000F059FE83460120002100915B462A4661
:102B8000CDE90208019121460A20FFF7B8FE10B9ED
:102B90004FF0000901E04FF00109204600F0B3FCBE
:102BA0004846D3E72DE9FF5F8046174699460E9CBD
:102BB0000026B246B3460025B8F1000F03D101202C
:102BC00004B0BDE8F09F0BE057F8250008B90220DB
:102BD000F6E757F8250000F026FE0644681CC5B24B
:102BE0004D45F1DB09EB4900801C00EB060A0AF1B8
:102BF00005012046FFF766FC206808B90320DFE7DF
:102C000082216268501C606020688154D4E900020F
:102C100081185046FFF790FC0FFA80FBBBF1000FC4
:102C200004DA2046FFF77AFC0420C9E760685844BC
:102C300060604FEA18216268501C6060206881540F
:102C40006268501C6060206800F80280002524E063
:102C500057F8250000F0E7FD0646C6F30721626835
:102C6000501C6060206881546268501C606020685D
:102C70008654D4E90023D01857F82510324600F0C6
:102C8000AEFD6068304460600198C1B26268501C5B
:102C9000606020688154681CC5B24D45D8DB0020B7
:102CA0008EE70146FF208A78A2B9CA78142A11D18A
:102CB0000A7932B1012A05D0022A04D0802A06D12D
:102CC00003E000BF00BF002003E0012001E002207C
:102CD00000BF00BF70472DE9F05F80460F46914668
:102CE0001C460026B246B3460025B8F1000F02D1BB
:102CF0000120BDE8F09F0BE057F8250008B902203D
:102D0000F7E757F8250000F08EFD0644681CC5B2B1
:102D10004D45F1DB022000EB490000EB060A0AF109
:102D200005012046FFF7CEFB206808B90320E0E745
:102D3000A2216268501C606020688154D4E90002BE
:102D400081185046FFF7F8FB0FFA80FBBBF1000F2C
:102D500004DA2046FFF7E2FB0420CAE76068584423
:102D600060604FEA18216268501C606020688154DE
:102D70006268501C6060206800F8028000251DE039
:102D800057F8250000F04FFD0646C6F3072162689C
:102D9000501C6060206881546268501C606020682C
:102DA0008654D4E90023D01857F82510324600F095
:102DB00016FD606830446060681CC5B24D45DFDBBD
:102DC000002096E7014601208A781AB9CA781E2A9F
:102DD00000D1002070472DE9FC5F81460D46144666
:102DE0001E46DDE90C8B99F8000000F00F0A002068
:102DF00001900AF008000090CAF341008BF800002F
:102E000001AA042109F10100FFF7ADFB4844471C6A
:102E10000198022802D30AF0010010B1FF20BDE89A
:102E2000FC9F7878397840EA012020802088801C37
:102E3000019988420AD9FF20F1E700007465737494
:102E40000000000024637273702F0000AFF258413D
:102E5000B81C00F0D6FC08B10F20E0E79BF800009A
:102E600020B101283DD0022877D13BE0009808B17D
:102E7000FF20D4E72188481C00F016FB2860286852
:102E800008B9FF20CBE72288511C286800F03BFDE1
:102E90002288B91C286800F0F1FC0198801E218866
:102EA000401AA8F80000B8F80010481C00F0FCFA1E
:102EB0003060306820B9286800F025FBFF20AEE7BD
:102EC000B8F80020511C306800F01DFDB8F8002053
:102ED000B4F800C0BB1C0CEB0301306800F0CEFC62
:102EE0004FE000BF2088801C0199884201D9FF2053
:102EF00095E72088C01C395C2088801C385C41EA3A
:102F000000210E9801800E9808B9FF2087E72188DC
:102F1000481C00F0C9FA2860286808B9FF207EE73D
:102F20002288511C286800F0EEFC2288B91C286811
:102F300000F0A4FC0198001F2188401AA8F80000A6
:102F4000B8F80010481C00F0AFFA3060306828B9BB
:102F5000286800F0D8FAFF2061E710E0B8F80020F8
:102F6000511C306800F0CFFCB8F80020B4F800C065
:102F70003B1D0CEB0301306800F080FC01E0FF20FA
:102F80004DE700BF2B21284600F01FFC20B923216C
:102F9000284600F01AFC08B1FF2040E700203EE779
:102FA00070B505460C4604212046FFF78BFA2068D1
:102FB00008B9012070BD40216268501C6060206823
:102FC000815402216268501C60602068815429127B
:102FD0006268501C6060206881546268501C6060A8
:102FE000206885540020E5E701464878022801D092
:102FF00001207047887820B9C8780A2801D10020BC
:10300000F7E70120F5E770B505460C460421204698
:10301000FFF758FA206808B9012070BD5021626896
:10302000501C60602068815402216268501C6060FE
:103030002068815429126268501C606020688154A5
:103040006268501C6060206885540020E5E70146F6
:103050004878022801D001207047887820B9C878C4
:103060000A2801D10020F7E70120F5E770B50546F1
:103070000C4604212046FFF725FA206808B90120F4
:1030800070BD62216268501C60602068815402211A
:103090006268501C60602068815429126268501C6C
:1030A0006060206881546268501C606020688554AC
:1030B0000020E5E702465078022801D00120704741
:1030C0009078B0EB112F05D1D078CBB2984201D1D6
:1030D0000020F4E70120F2E770B505460C46042114
:1030E0002046FFF7EFF9206808B9012070BD702174
:1030F0006268501C60602068815402216268501C24
:1031000060602068815429126268501C60602068E9
:1031100081546268501C6060206885540020E5E797
:1031200001464878022801D001207047887820B9EC
:10313000C8780A2801D10020F7E70120F5E710B58B
:10314000044602212046FFF7BDF9206808B9012096
:1031500010BDC0216268501C60602068815400214D
:103160006268501C6060206881540020F0E7000015
:1031700010B58021874800F0C6FB002086490880F2
:1031800010BD8548008808B9012070478248008832
:1031900082490988884203D100207F490880F4E7EA
:1031A0007D4800887D4908800120EEE72DE9F04147
:1031B00004460D46C826204600F035FB87B23A4645
:1031C00021467748FEF7B8FC0FE0FFF7DAFF48B971
:1031D0002946704800F015FB20B1FFF7C9FF002019
:1031E000BDE8F0810A20FEF773FA3000A6F1010174
:1031F000CEB2EAD10120F3E730B589B004460D46DE
:10320000FFF7B6FF2A4667A101A800F0BDF969A142
:1032100001A8FFF7CBFF20B92A4621466048FEF7F8
:103220008BFC09B030BD70B50546002400BFFFF728
:10323000A8FF80B960A1574800F0E3FA044654B1F2
:103240003A21204600F0C1FA044614B1641C20461D
:1032500070BD0020FCE70520FEF73AFA2800A5F132
:1032600001018DB2E3D100BFF2E708B501210420CE
:10327000FDF73AFD10208DF803008002ADF8000044
:1032800003208DF8020069464D48FDF771FA0022CF
:103290004FF480414A48FDF71CFBFA20FEF718FA6C
:1032A000012291034648FDF714FB4FF4FA70FEF734
:1032B0000FFAFFF75DFF43A14448FEF756FC03E019
:1032C0004FF4FA70FEF704FA41A142A0FFF76EFF37
:1032D0000028F5D141A13D48FEF747FC03E04FF43B
:1032E000FA70FEF7F5F93AA13FA0FFF75FFF00285B
:1032F000F5D141A13548FEF738FC03E04FF4FA70F0
:10330000FEF7E6F932A140A0FFF750FF0028F5D103
:1033100041A12E48FEF729FC03E04FF4FA70FEF7B6
:10332000D7F940A141A0FFF741FF0028F5D147A1FF
:103330002648FEF71AFC03E04FF4FA70FEF7C8F9CE
:1033400046A148A0FFF732FF0028F5D150A11F4841
:10335000FEF70BFC08BD10B540F225511048FDF7F3
:10336000E7FEB0B10C480088802802D300200A494B
:1033700008800B48001D0088C1B2074802880088F9
:10338000401C054B18800348815420210448FDF758
:10339000C6FE10BD3C000020380000203A0000208E
:1033A0000044004041542B43495053454E443D2571
:1033B000640D0A003E0000004950442C000000004B
:1033C00000100140312E2041540D0A000038014008
:1033D0004F4B000041540D0A00000000322E2043E4
:1033E000574D4F44450D0A0041542B43574D4F4410
:1033F000453D310D0A000000332E2041542B435728
:10340000444843500D0A000041542B43574448435D
:10341000503D312C310D0A00342E2043574A415083
:103420000D0A0000474F54204950000041542B43DF
:10343000574A41503D22687561687561222C22759A
:1034400073737475737374220D0A0000352E204354
:10345000495053544152540D0A000000434F4E4E00
:103460004543540041542B43495053544152543D19
:1034700022544350222C223138332E3233302E3412
:10348000302E3339222C363030320D0A0000000045
:10349000362E204553503832363620496E69742016
:1034A0004F4B0D0A0000000070B5064600F078FA98
:1034B000056806F10B0020F00704B4429CBF002011
:1034C00070BD2B466A68BAB11068A04210D304F1EF
:1034D000080188423CBF5068586007D351681019F2
:1034E00041601168091B016058601460101D70BDB7
:1034F00013465268002AE7D12146284600F05CFABC
:103500000028DED170BD70B50446051F00F048FAF2
:103510000068002C14BF446870BD002C18BFAC427A
:103520003CBF20466468F8D301680A18AA4218BF55
:10353000456003D12A680546114401602868411995
:10354000A1421CBF6C6070BD61686960216808445D
:10355000286070BD7CB51D4616460C00009001D059
:103560002044401E074B7B442A4669460190304662
:1035700000F04BFD05461CB10020694600F058FDE7
:1035800028467CBDD10A00000FB41CB5084B06AA22
:103590007B4469460090059800F037FD0446002002
:1035A000694600F045FD20461CBC5DF814FB000098
:1035B0009D0A00002DE9F041064600241068752997
:1035C000314615A510D000F068FA002802DA404212
:1035D00012A507E031688A0701D511A502E0490765
:1035E00004D510A5012401E000F060FA00210A23AF
:1035F00006F1240707E0B0FBF3F203FB12003030C2
:1036000078541046491C0028F5D123462A463046F6
:10361000BDE8F04100F07CBA000000002D00000081
:103620002B000000200000002DE9F05F89460446D1
:103630004FF0000ADFF874B1FB44C0F820A0204628
:10364000E1688847002874D0252806D0D4E90121F4
:103650009047206A401C2062F1E700265F46204622
:10366000E16888472028054607DB312D05D2781907
:1036700010F8200C08B10643F1E7B00701D526F099
:103680000406C4F81CA00027C4F818A02A2D09D0ED
:10369000284601F0BCFC38B304EB8708303DC8F87D
:1036A000185019E059F8041B204604EB8702916179
:1036B000E1688847012F054618D1E069002820DA23
:1036C00026F020061DE0D8F8180000EB800005EB7E
:1036D00040003038C8F818002046E16888470546A1
:1036E00001F095FC0028EED1012F0AD02E2D08D133
:1036F0002046E16888477F1C0546022F46F02006D9
:10370000C4DBA069002803DA404246F00106A0614C
:10371000F00701D026F010066C2D0BD0682D09D0D3
:103720004C2D39D06A2D35D0742D35D07A2D33D02B
:1037300016E038E0E1682F4620468847B842054643
:1037400009D16C2F26D04FF48060E16806432046F3
:103750008847054604E06C2F1AD04FF4807006436A
:103760000DB3A5F14100192802D8203546F40066B2
:103770004A462946204626604E46FCF713FD80B196
:1037800001280BD0F61D26F0070000F1080956E7C6
:103790004020E4E78020D8E70020D6E706F10409BE
:1037A0004DE7284652E7206ABDE8F09F321E000030
:1037B00070B5064600F0F8F80468054630460A225F
:1037C000002100F05FFD2C6070BD401ECAB210F8F1
:1037D000011F8A4202D00029F9D10020704710B59C
:1037E000431E13F8014F002CFBD105E011F8014BEB
:1037F000002C03F8014B03D0521EF7D200211970A0
:1038000010BD30B505460B462A4613F8014B12F899
:10381000010B08B1A042F8D01CB1002802D06D1CE9
:10382000F1E7284630BD10B5431C02E010F8011B3B
:1038300071B18107FAD14FF0013202C88C1A8C4362
:1038400014EAC211F9D0C01A0A0603D0C01E10BD76
:10385000C01A10BD0A0401D0801E10BD0902FCD0A0
:10386000401E10BD421E12F8013F002BFBD111F883
:10387000013B002B02F8013BF9D17047032A40F2CB
:10388000308010F0030C00F0158011F8013BBCF102
:10389000020F624498BF11F801CB00F8013B38BF1A
:1038A00011F8013BA2F1040298BF00F801CB38BF28
:1038B00000F8013B11F0030300F01C85083AC0F04A
:1038C000088051F8043B083A51F804CBA0E80810EE
:1038D000F5E7121D5CBF51F8043B40F8043BAFF321
:1038E0000080D20724BF11F8013B11F801CB48BF7B
:1038F00011F8012B24BF00F8013B00F801CB48BFB1
:1039000000F8012B70474FF000020429C0F012802C
:1039100010F0030C00F01B80CCF1040CBCF1020F82
:1039200018BF00F8012BA8BF20F8022BA1EB0C0157
:1039300000F00DB85FEAC17C24BF00F8012B00F84D
:10394000012B48BF00F8012B70474FF0000200B573
:10395000134694469646203922BFA0E80C50A0E8B2
:103960000C50B1F12001BFF4F7AF090728BFA0E860
:103970000C5048BF0CC05DF804EB890028BF40F82C
:10398000042B08BF704748BF20F8022B11F0804F6E
:1039900018BF00F8012B7047704770477047000050
:1039A00000487047C400002000487047BC00002059
:1039B000704770477047704738B504460A46002084
:1039C0006946AFF30080002808BF38BD0246009961
:1039D000204600F0D1FC012038BD012000F074BE6B
:1039E000F8B5AFF30080054600200C46102000BF5C
:1039F0000646A819A0420DD9324669460020AFF309
:103A00000080070008BF00F05FFE0098A04218BFCA
:103A10000546C419FFF7C4FF05600746F01D20F0F6
:103A200007004619284600F00AF8B44208BFF8BD5E
:103A3000A21B31463868BDE8F84000F09DBC00216B
:103A40000160C0E9011070471020704770B504464E
:103A500085690068C10601D5302600E02026C00730
:103A600007D070BDD4E9012130469047206A401C40
:103A700020626D1EF6D570BD70B50446856900786C
:103A8000C00707D170BDD4E9012120209047206AEA
:103A9000401C20626D1EF6D570BD09684A0501D52F
:103AA00040B27047C905FCD500B2704709684A05A5
:103AB00001D5C0B27047C905FCD580B2704770B55A
:103AC0000C460546012A05D02878800600D5EA690B
:103AD000002302E0012305E05B1C934202D2E05C7C
:103AE0000028F9D1A869E618C01AA861286A184404
:103AF00028622846FFF7AAFF04E0D5E9012114F85F
:103B0000010B9047B442F8D32846FFF7B5FF70BDCC
:103B10002DE9F0470D4699469246044600F12408E7
:103B20000168880604D5E06921F01001216000E0F9
:103B30000120A84201DD471B00E00027A1697A1996
:103B400002EB0900081AA0612078C00602D42046C2
:103B5000FFF77CFF002608E0D4E901211AF80600EF
:103B60009047206A401C761C20624E45F4DB20788A
:103B7000C0060AD52046FFF769FF06E0D4E9012117
:103B800030209047206A401C2062381EA7F10107B0
:103B9000F4DC07E0D4E9012118F805009047206A19
:103BA000401C2062281EA5F10105F3DC2046FFF72A
:103BB00063FF2078000602D50220BDE8F0870120CF
:103BC000FBE711680268006A530501D508700AE036
:103BD000D30501D5088006E0130603D5C217C1E955
:103BE000000200E008600120704770472DE9FF4F98
:103BF0000C461E464FF0FF378BB0D2E90001DDF8CE
:103C000060800A908A46C1F30A5505B93D460021F5
:103C100008464FF00000BAF1000F00F4400005DA4A
:103C200000EB80004FF4400101EA50004FEA905948
:103C3000B9F1010F00DDB9460A9850EA4A000ED0EA
:103C400044F61050A5F2FF3545432F14B8F1000F8C
:103C50001ED07542291E1EDDC9F100021CE0B8F11C
:103C6000010F4FF0000001D0302103E0F24305E0E6
:103C70002154401CB042FBDB30460022002121547D
:103C80000B99C1F80880C1E900200FB0BDE8F08FA2
:103C9000BD1B6D1CDEE74A4600DA694206A800F04B
:103CA00087FC06AB93E8070003AB83E807005046A8
:103CB0000A9900F0DDFD8DE80700A0F500501F38DF
:103CC00000900398002D09DD42F21F014A46084486
:103CD00003A90390684601F03CF808E0A0F5005005
:103CE0004A461F3803A90390684601F046F88DE85C
:103CF00007000004000C03D04FF0FF30410800E043
:103D00001046B8F1000F03D00022009215461EE0C5
:103D1000751E05D400F04AFB303262556D1EF9D590
:103D2000B3460122084302D000227F1C04E0207821
:103D3000302801D100227F1E002A099786D01DE07D
:103D4000112D07DA00F032FB303262556D1C50EA5B
:103D50000102F5D1084302D00098C8B10EE000215D
:103D6000681E05E0235C625C63542254401E491CBB
:103D70008142F7DBAB46A81B401E0990002004F8E7
:103D80000B000B98099AC0F80880C0E9002B7CE76B
:103D900011264FF0000859E72DE9F04F88460446F8
:103DA000D21D22F0070191B0D1E90001CDE90A014D
:103DB00001F019F902460B98C00F01D02D2007E041
:103DC0002068810701D52B2002E0202101EAC000F4
:103DD000032A099001D0072A05DB03464146204605
:103DE00000F02AFB09E12078800601D5E06900E0B7
:103DF0000620B8F1650F814606D0B8F1660F18D0DD
:103E0000B8F1670F70D131E00020B9F1110F0090C7
:103E100001DB112301E009F101030AAA01A90CA8A1
:103E2000FFF7E4FEDDE90C70002609F10105834689
:103E300047E001204B4600904FF000470AAA01A935
:103E40000CA8FFF7D3FEDDE90DB00C995D46002606
:103E500010B909F101000D18B9EB050003D4C0F148
:103E6000FF3609F10105A5EB09002BE0B9F1010FBF
:103E700001DA4FF001090020B9F1110F0090484616
:103E800001DD112300E003460AAA01A90CA8FFF7EF
:103E9000ADFEDDE90C704D46002683462078000714
:103EA0000AD4AB4500DA5D4601A8012D04DD4119B5
:103EB00011F8011C302907D04F4502DA17F1040F21
:103EC00004DA012082460FE06D1EEEE7002F02DCCF
:103ED000ED1B3E4403E0781CA84200DD7D1CB81BAE
:103EE00000F1010A4FF000472078000703D4AA45EB
:103EF00001DB4FF0FF3A0021B7F1004F0DF143080D
:103F00008DF8431022D002202B23002F01DA7F42AC
:103F10002D234FF00A0C011EA0F1010000DC47B177
:103F200097FBFCF10CFB11720F46303208F8012DA3
:103F3000F1E7A8F1010003702188090501D54521A9
:103F400000E06521A0F1010800F8011C09980FA903
:103F5000A1EB0807FF1D00B10120411901EBEA7038
:103F6000A1693844081A401EA0612078C00602D416
:103F70002046FFF76BFD099828B1D4E9012190474D
:103F8000206A401C20622078C00622D52046FFF718
:103F90005DFD1EE0002E04DBB34502DD01A8805D5F
:103FA00000E03020D4E901219047206A401C2062C3
:103FB000761CAAF101005FEA000A0AD100F0D8F9E4
:103FC000C0680168405CD4E901219047206A401C28
:103FD0002062281EA5F10105DCDC07E0D4E90121FF
:103FE00018F8010B9047206A401C2062381EA7F188
:103FF0000107F3DC2046FFF73FFD022011B045E644
:1040000001694A1C02610878704700B58FB0CDE99C
:1040100001310021059105497944CDE9031011468C
:104020006846FFF701FB0FB000BD0000E5FFFFFF92
:104030000A6802F8010B0A607047D1E900239A422E
:1040400002D2531C0B601070704700002DE9FF5F17
:1040500015468A460446DFF8AC80F8440027D8E9C4
:1040600000103E46CDE9001010E03AF816106A46FE
:1040700002A800F009FB411C07D02178890603D56E
:10408000E269391891420DD80744761C20788006E1
:1040900002D5E069B84205DDAE42E6DB3AF816002B
:1040A0000028E2D1A069C01BA0612046FFF7CEFC2A
:1040B000D8E90010CDE90010002017E03AF81810F8
:1040C0006A4602A800F0E0FAB0F1FF3F81460BD04B
:1040D00000250DF1080B05E0D4E901211BF80500CE
:1040E00090476D1C4D45F7D308F10100B042804662
:1040F000E4DB206A384420622046FFF7BDFCBDE8BF
:10410000FF9F0000221400002DE9F0418046D21DDF
:1041100022F007020025D2E90002F52914A612D0E8
:10412000002A06DA0023D0EB030063EB020211A69B
:1041300008E0D8F800108B0701D50FA602E0490768
:1041400001D50EA601251146002408F1240704E03C
:1041500000F02CF930323A55641C50EA0102F7D1D4
:104160002B46324621464046BDE8F041FFF7D0BC21
:10417000000000002D0000002B00000020000000C7
:1041800030B4002100F1240408E002F00705D20851
:10419000303542EA4372DB086554491C52EA030594
:1041A000F3D10468002310A2250708D504F02004E9
:1041B0000C4304D0C46901230CA2641EC46130BC4A
:1041C000FFF7A6BC10B5044621461068FFF76EFC49
:1041D00002462046BDE810400023D1E7D21D22F060
:1041E0000701D1E90023CBE7000000003000000008
:1041F000F0B40D460188090502D5214C7C4402E04B
:104200001F4C7C440E34002100F1240608E002F02B
:104210000F071209E75D42EA03721B097754491C34
:1042200052EA0307F3D102780023120704D5702D58
:1042300006D009B1022311342246F0BCFFF768BC56
:1042400001231034F8E770B504460D462146106886
:10425000FFF72CFC024629462046BDE870400023AB
:10426000C6E7D21D22F00703D3E90023C0E70368A5
:10427000126843F0200303600823C3610023B7E7FB
:10428000881200002DE9F04791460F46804604460B
:10429000002614F8015B2DB100F062F80068405D63
:1042A000C007F6D12B2D02D02D2D18D0641E4A4602
:1042B0003946204600F02CF927B13968A14201D1D6
:1042C000C7F800804FF0020471050BD5404200286A
:1042D00003DDFFF769FB0460A007BDE8F08746F443
:1042E0008066E4E70028F8DAFFF75EFB04606FF011
:1042F0000040F2E710B5203AC0F00B80B1E818504A
:10430000203AA0E81850B1E81850A0E81850BFF4BF
:10431000F5AF5FEA027C24BFB1E81850A0E818505E
:1043200044BF18C918C0BDE810405FEA827C24BFB2
:1043300051F8043B40F8043B08BF7047D20728BF40
:1043400031F8023B48BF11F8012B28BF20F8023B8F
:1043500048BF00F8012B704700487047BC000020A0
:1043600010B500F005F8001D10BD00BFDD0C000009
:1043700000487047DC000020034640688C46002857
:1043800018BF88423CBF03464068F8D318681844F9
:10439000884207D00CF1030020F00700001D411AED
:1043A000521A0146081D0A60FFF7ADB830B5B0F1EA
:1043B0000A024FEA900E71F100034EEA817EB0EBE3
:1043C0000E0061EB91014FEA101E4EEA017E10EBE8
:1043D0000E0041EB11114FEA102E4EEA016E10EB68
:1043E0000E0041EB11214FEA104E4EEA014E10EB48
:1043F0000E0041EB1141401841F100014FEAD0009D
:1044000040EA41704FEAD10110EB80054FEA810488
:1044100044EA907444EB01046D1944EB0404521B0C
:10442000A3414FF0000348BF0A3200D530BD401C05
:1044300041F1000130BD00002DE9F0411F46044666
:1044400003260168072A01F4006004DB08B116A501
:1044500005E016A503E008B115A500E015A521F0BB
:1044600010002060A069C01EA0610FB1401EA061B5
:104470002046FFF7EBFA4FB1D4E9012138469047C7
:10448000206A401C2062C01C206206E0206AFAE715
:10449000D4E9012115F8010B9047761EF8D2204689
:1044A000FFF7EAFABDE8F0814E414E006E616E0002
:1044B000494E4600696E660010B5436913B1AFF30B
:1044C000008001E0FFF7FBFA012010BD127800F137
:1044D00024010A7000224A700122EDE711684FF0B2
:1044E000FF32E9E710B5436913B1AFF3008001E093
:1044F000FFF7ACFD012010BD128800F12401828479
:104500000022C2840122EDE711684FF0FF32E9E793
:104510002DE9F05F824615468B4600270AF101041B
:10452000B9460078302801D09DB113E014F8010B92
:104530000127782803D0582801D045B10AE00DB1F1
:10454000102D07D1002714F8010B102502E00825D3
:1045500000E00A250026B0460EE005FB080005FB3A
:1045600006F101271FFA80F801EB1046B6F5803FEF
:1045700000D3B94614F8010B294600F0D2F8002800
:10458000EBDABBF1000F05D00FB1641E00E054461A
:10459000CBF80040B9F1000F06D0FFF705FA022171
:1045A0000160C81EBDE8F09F48EA0640FAE7000037
:1045B0002DE9F047814616468AB0324878440DC846
:1045C0008DE80D002F487844801C03AC0DC884E8AA
:1045D0000D0041F69B303722014491FBF2F0A0F12F
:1045E000800502FB10141B3C02D56442012000E050
:1045F0000020DFF890A080460027FA44AAF1BA0A0A
:104600000DE0E00709D03246684607EB47010AEBA8
:10461000810100F0B2FB8DE8070064107F1C002CC4
:10462000EFD1184F7F44A83F18E0E80714D007EBFC
:1046300004100DF1180A90E80E008AE80E00C06818
:10464000F04201D198190890324606A903A800F05B
:1046500094FB03AB83E807006D10641C002DE4D1CC
:1046600032466946B8F1000F03A802D000F071FB92
:1046700001E000F082FBC9E90001C9F808200AB096
:10468000BDE8F0876C0F000070B516460C46054675
:10469000FFF766FE036893F80101012806D0FF2C9E
:1046A0000FD8185D68B101202C7070BDD3F80701D8
:1046B0003246214603442846BDE8704003F2071302
:1046C00018474FF0FF3070BD10B500F043F8BDE85B
:1046D000104000F03AB870477546FFF73DFEAE4611
:1046E00005006946534620F00700854618B020B5FE
:1046F000FBF75EFFBDE820404FF000064FF00007DB
:104700004FF000084FF0000B21F00701AC46ACE879
:10471000C009ACE8C009ACE8C009ACE8C0098D46E6
:1047200070473A2800D2303820F02002412A01D3C5
:10473000A2F13700884201D34FF0FF3070470446A2
:10474000AFF300802046FBF794FD002801D000F075
:1047500069B8704710B5012805D0002103A000F00A
:1047600067F8012010BD09A1F8E70000534947523E
:10477000544D454D3A204F7574206F662068656131
:1047800070206D656D6F7279000000003A204865F9
:104790006170206D656D6F727920636F72727570D4
:1047A000746564004FF0013C50F8042B51F8043B51
:1047B0009A4221D1A2EB0C03934313EACC1317D1F5
:1047C00050F8042B51F8043B9A4215D1A2EB0C038C
:1047D000934313EACC130BD150F8042B51F8043B4C
:1047E0009A4209D1A2EB0C03934313EACC13DBD01A
:1047F0004FF00000704700BFD01A01BAB1FA81F142
:1048000001F0180122FA01F0CB40C1F12001DBB226
:10481000C0B2C01A2CFA01F3D11A914311EAC311A4
:10482000E6D1704701491820ABBEFEE72600020022
:1048300070B505460C460A2000E06D1C00F011F82A
:1048400035B128780028F8D102E0641C00F009F89E
:1048500014B120780028F8D1BDE870400A20AFF3E9
:10486000008008B569468DF800000320ABBE08BD86
:104870005FEA400C08BF91F0000F4FEA8C234FEA2B
:10488000C12243EA51514FEA1C5018BF00F5F040D5
:104890004FEA300018BF41F000415FEA6C5C00F065
:1048A0002980BCF1FF3F08BF40F080407047130CE7
:1048B00006BF12044FF0100C4FF0000C130E04BF93
:1048C00012020CF1080C130F04BF12010CF1040CBE
:1048D000930F04BF92000CF1020CD30F04BF5200DF
:1048E0000CF1010C11464FF00002A0F11F00A0EBEB
:1048F0000C00704711F0004F08BF704731F00041C5
:104900003FF4D5AF0B0C06BF09044FF0100C4FF06D
:10491000000C0B0E04BF09020CF1080C0B0F04BFB6
:1049200009010CF1040C8B0F04BF89000CF1020C7F
:10493000CB0F04BF49000CF1010CCCF12003A0EB1C
:104940000C0022FA03F302FA0CF241EA030100F12F
:104950000100704720F07F4C80EA030023F07F477E
:10496000ACEB070303F57C5300F0004003F1FF03B9
:104970002DE980494FEA154B09B44FEA144325EA63
:104980000B4E24EA03480FF2042606EB13274908CE
:104990003E785FEA320203FB0667C7F5000707FBB4
:1049A00006F64FEA54374FEAD64606F1020607FBF1
:1049B000066CCCF1005C4FEA1C472CEA074C07FB65
:1049C00006F40CFB06F504EB15464FEA961634BFC9
:1049D00000204FF000404FEAD13706FB07FC4FEABA
:1049E0001C4C0CFB0BF7D21B03FB0CF761EB070114
:1049F0000CFB0EF7B0EB074072EB17420CFB08F70D
:104A000034BFA2EB0742B2EB074261EB17414FEA1A
:104A10000C444FEA910706FB07FC4FEA1C4C0CFBC9
:104A20000BF7B0EBC74072EB573203FB0CF734BF08
:104A3000A2EBC742B2EBC74261EB57310CFB0EF75A
:104A4000B0EBC70072EB57720CFB08F734BFA2EB58
:104A5000C702B2EBC70261EB5771039F4FEA816156
:104A600041EA921104EBCC044FEAD1374FEA82625B
:104A700006FB07FC42EA90124FEA80604FEA1C4CAA
:104A80000CFB0BF7D21B03FB0CF761EB07010CFBD4
:104A90000EF7B0EB074072EB17420CFB08F734BF80
:104AA000A2EB0742B2EB074261EB17414FEA8C558C
:104AB0004FEA910704EB9C2406FB07FC4FEA1C4CD1
:104AC0000CFB0BF7B0EBC74072EB573203FB0CF754
:104AD00034BFA2EBC742B2EBC74261EB57310CFBCC
:104AE0000EF7B0EBC70072EB57720CFB08F734BF40
:104AF000A2EBC702B2EBC70261EB577115EB4C2575
:104B00004FEA816141EA92114FEA82624FEAD1375E
:104B100042EA901206FB07FC44F100044FEA806071
:104B20004FEA1C4C0CFB0BF7D21B03FB0CF761EBA1
:104B300007010CFB0EF7B0EB074072EB17420CFBC2
:104B400008F734BFA2EB0742B2EB074261EB174113
:104B500015EB1C154FEA813141EA92414FEA82324E
:104B600042EA90424FEA80304FEA0C7644F100046A
:104B700048EA03434EEA0B484FF0000EB2EB080C34
:104B800071EB030724BF624639464EEB0E0E4FF021
:104B9000000B0018524149414BEB0B0BB2EB080CD8
:104BA00071EB03077BF1000B24BF624639464EEBE5
:104BB0000E0E4FF0000B0018524149414BEB0B0B0E
:104BC000B2EB080C71EB03077BF1000B24BF6246CC
:104BD00039464EEB0E0E51EA020718BF46F00106A9
:104BE00016EB0E7655F1000254F1000103D5BDE835
:104BF0008901BDE80088BDE88901B619BDE8004813
:104C0000524141EB0101A3F10103704780807F7E97
:104C10007D7C7B7A79787776767574737271717032
:104C20006F6E6E6D6C6C6B6A6A69686867666665E4
:104C30006464636362616160605F5F5E5E5D5D5C72
:104C40005C5B5B5A5A5959585857575656555555E3
:104C50005454535352525251515050504F4F4F4E43
:104C60004E4D4D4D4C4C4C4B4B4B4A4A4A49494991
:104C700048484847474747464646454545444444D3
:104C8000444343434342424242414141002B26D4E4
:104C9000770021D01CB54FEA370703B44FF010005E
:104CA0004FF010014FF000000FBC0BF1010BBDE8FD
:104CB0001040BBF1010F08BF5FEA170722BF12F1D6
:104CC000010211F101014FF0004143F1000300F036
:104CD000004043EA00007047F9D35708DAE746EA94
:104CE000064613F1400F4FEA16461FDD13F1200F61
:104CF000DFBF16430A46002120335B42C8D0C3F110
:104D0000200746EA064602FA07F74FEA164646EA41
:104D10000706C3F1200722FA03F201FA07F721FA86
:104D200003F14FF0000342EA0702B1E746EA020648
:104D300046EA06464FEA164646EA0106BCBF46EA80
:104D40000646360C4FF000034FF000024FF0000112
:104D50009EE72DE9C048934630B491E8380007C873
:104D600031EA400C48BF34EA430C03D5FFF7F2FDAB
:104D7000FFF78CFFF0BCBDE800882DE9C0489346E2
:104D800030B491E8380007C810F0804F08BF13F026
:104D9000804F03D100F005F8FFF778FFF0BCBDE8C5
:104DA000008820F07F4780EA030023F07F4C07EB68
:104DB0000C03A3F57C5300F00040A3F1FE0392F036
:104DC000000F00F0B38095F0000F00F077802DE920
:104DD00001494FEA11404FEA144621EA004800FB1E
:104DE00006FC24EA064708FB06F607FB08F800FB6A
:104DF00007F718EB06484CEB164C4FEA124B18EB32
:104E000007484FEA15464CEB174022EA0B4E0BFBC6
:104E100006FC25EA06470EFB06F607FB0EFE0BFB1B
:104E200007F71EEB064E4CEB164C4FF000061EEB40
:104E3000074E4CEB174B18EB0B0840F1000018EB3A
:104E40000E0B58EB000840F100008F1A4FF00001E4
:104E50003CBFC943661B14BFB5EB040C00213CBF2B
:104E6000C943F61B4FEA17444EEA8E0E27EA044563
:104E70004FEA1C4704FB07622CEA074C05FB07F7C7
:104E80000CFB05F604FB0CFC16EB074642EB174245
:104E900016EB0C4642EB1C421BEB060658EB0202DB
:104EA000414146EA9E0601D5BDE80189B619524145
:104EB00041EB0101A3F10103BDE801894FEA14456B
:104EC0004FEA114724EA054621EA074C05FB07F49F
:104ED00006FB07F70CFB06F105FB0CFC11EB074189
:104EE00044EB17444FEA124711EB0C4144EB1C44CE
:104EF00022EA074C05FB07F206FB07F70CFB06F658
:104F000005FB0CFC16EB074642EB174216EB0C4672
:104F100042EB1C456A1854F1000148BF7047B619AE
:104F2000524141EB0101A3F10103704795F0000FDD
:104F300037D04FEA11424FEA144721EA024624EAE9
:104F4000074C02FB07F106FB07F70CFB06F402FB1C
:104F50000CFC14EB074441EB17414FEA154714EBE7
:104F60000C4441EB1C4125EA074C02FB07F506FB0C
:104F700007F70CFB06F602FB0CFC16EB074645EBAD
:104F8000174516EB0C4645EB1C42121951F1000176
:104F900048BF7047B619524141EB0101A3F101032B
:104FA00070474FEA14454FEA114724EA054621EAC3
:104FB000074C05FB07F106FB07F70CFB06F24FF069
:104FC000000605FB0CFC12EB074241EB174112EB0C
:104FD0000C4251EB1C4148BF7047921841EB010154
:104FE000A3F101037047490050EAC12018BF042013
:104FF0004A0D18BF40F0010040F2FF72B2EB515F62
:1050000008BF40F00200012808BF05207047303873
:105010000A2801D2012070470020704710B50029EE
:105020000AD00878002807D005487844FFF7BAFB73
:10503000002801D0002010BD0248784410BD0000B7
:105040003A0500003205000010B500290AD00878A2
:10505000002807D005487844FFF7A4FB002801D0BA
:10506000002010BD0248784410BD00002A05000051
:105070002205000021F00042A2F16052B2F5801F2B
:1050800001F0004328BFD2F17F6C0BD95FEA001C0E
:1050900043EAC20242EB507018BF704728BF20F0AD
:1050A00001007047B2F5801FBCBF184670474FEA39
:1050B000410C1CF5001F02D2084600F0D1B970B5B2
:1050C00000F0B4F800000089FFF7F6BF4FF0004091
:1050D000A0F5800070470000DFF848C170B51CEAF9
:1050E000111E1EBF1CEA13159EEA0C0F95EA0C0F49
:1050F00000F06F8081EA030423EA4C134EEAD47E69
:1051000021EA4C1141F4801143F48013AE44A1FB19
:10511000024CA0FB0365AEF17F7E361955EB0C0502
:10512000A1FB034C4CF10003A0FB021C16EB0C0688
:10513000654153F10003094218BF46F0010613F41C
:10514000007F0BD14FEA03314FEA0530340341EAC7
:10515000155140EA16506FF003020AE04FEAC321EE
:105160004FEAC520F40241EA555140EA56506FF02B
:10517000020202EB2E4201EB025585EACE710AD003
:105180005FEA440C18BF24F0004450F1000041F1E4
:10519000000120EAD47040F2FE7C624500D270BD6E
:1051A000A84214BF4FF080444FF04044002E08BF87
:1051B0000024BEF1806FA8BFA1F1C041BDE87040DE
:1051C00080F282804FF0000001F1C04101F0004107
:1051D00070479EEA0C0F0CEA131518BF95EA0C0FE6
:1051E00006D04FF0000081EA030E0EF0004170BDC2
:1051F00000F01CF88900013E00F007B800F009B883
:105200004FEA430C5FEA5C5C08D081EA030100F0DE
:105210005BB84FEA410C5FEA5C5CF6D14FF00000EE
:10522000014970470000FF070000F87F0EF1020EF1
:105230002EF0030E5EF8046B364205D4012A43EBD0
:10524000030515F5001F12D8012841EB010C1CF5D0
:10525000001F0CD80ED14FEAD17C15F5001F0CEBC6
:105260004C0C0CF1020C08BF4CEBD37C04E04FF06B
:10527000080C01E04FEAD37C0CEB4C0526FA05F64E
:1052800006F00706B6F1040C06D20EEB860CBDE85C
:1052900070404CF0010C6047DFE80CF0090B020293
:1052A0004FF000414FF00000A1F5002170BD1946FC
:1052B0001046012851EB010418BFD4F5001484BF37
:1052C000002001F0004170BD0808A0F500114FEA70
:1052D0003101704743004FEAD30C4FEA3C0C434086
:1052E0001FBF40070CF1605113F0FE4F70471CF0D8
:1052F000006F03D100200CF0004170470CF0004318
:1053000043EA507010B540EACC0000F063F800BFEB
:10531000000000924FEA0001FFF7D6BF4FF00041B6
:105320004FF00000A1F500217047401058BFC0F1B8
:105330004040491058BFC1F140418142EFF3008025
:1053400070470000B0FA80F310FA03F2C3F19D0336
:105350000AD0D90501EB1220530638BF704700F17F
:10536000010008BF20F001007047000050EA010C66
:1053700000F113801CF5000F58BFBCF5000F01D4DD
:105380008842704707D710F5000F58BF11F5000F7E
:1053900015D488427047894270471CF5000F04D528
:1053A000BCF5000FF7D5814270474FF0807C1CEBB5
:1053B000400F38BF1CEB410F01D28142704710B53E
:1053C00000F008F8922449004FF000504FF080514F
:1053D000FFF7ABBF0EF1020E2EF0030E5EF8044B8A
:1053E000244204D44FEA4102B2F17F4F11D84FEA70
:1053F0004003B3F17F4F0CD80ED14FEAD07CB2F10D
:105400007F4F0CEB4C0C0CF1020C08BF4CEBD17C29
:1054100004E04FF0080C01E04FEAD17C0CEB4C03A8
:1054200024FA03F404F00704B4F1040C06D20EEBE2
:10543000840CBDE810404CF0010C6047DFE80CF034
:10544000070802024FF00040A0F5800010BD08469A
:10545000420018BFD2F1807288BF00F0004010BD3A
:10546000FF2141EAD050C0057047FEF795BC04000B
:105470000008000000000000000200010000100011
:105480000000000000000000303132333435363780
:105490003839414243444546403058003031323378
:1054A0003435363738396162636465664030780078
:1054B00002400000000000A00000000005400000C5
:1054C000000000C8000000000C4000000000409CEC
:1054D00000000000194000000020BCBE00000000D9
:1054E00034400000BFC91B8E00000004B54000001E
:1054F000504BCFD06607E2CF010000006C410000A6
:105500003E8251AADFEEA73401000000D94200001C
:10551000DCB5A0E23A301F97FFFFFFFFB445000063
:10552000FD25A0C8E9A3C14FFFFFFFFFFF3F00001B
:105530000000008000000000FF3F0000000000802D
:105540000000000090560008000000203C00000011
:105550006C010008CC5600083C000020E406000066
:10556000880100081C00000043000000F8FFFFFF56
:105570000C0000000E0000000F0000002E000000D4
:105580001001000043000000F8FFFFFF0040404012
:105590004040404040404141414141404040404006
:1055A00040404040404040404040404040050202B2
:1055B0000202020202020202020202020220202071
:1055C00020202020202020020202020202029090CD
:1055D00090909090101010101010101010101010CB
:1055E000101010101010101002020202020288881F
:1055F000888888880808080808080808080808082B
:105600000808080808080808020202024000000012
:10561000000000000000000000000000000000008A
:10562000000000000000000000000000000000007A
:10563000000000000000000000000000000000006A
:10564000000000000000000000000000000000005A
:10565000000000000000000000000000000000004A
:10566000000000000000000000000000000000003A
:10567000000000000000000000000000000000002A
:10568000000000000000000000000000000000001A
:1056900000A24A0400000000000000000102030410
:1056A00006070809000000000102030401020304C8
:1056B00006070809020406080000000000000000B8
:0C56C000000000000000000000000000DE
:0400000508000131BD
:00000001FF
